:20010000C901010101010101010101010101010101010101010101010101010101010101F7
:2001200001010101010101010101010101010101010101010101010101010101010101019F
:2001400001010101010101010101010101010101010101010101010101010101010101017F
:2001600001010101010101010101010101010101010101010101010101010101010101015F
:2001800002020202020202020202020202020202020202020202020202020202020202021F
:2001A0000202020202020202020202020202020202020202020202020202020202020202FF
:2001C0000202020202020202020202020202020202020202020202020202020202020202DF
:2001E0000202020202020202020202020202020202020202020202020202020202020202BF
:2002000003030303030303030303030303030303030303030303030303030303030303037E
:2002200003030303030303030303030303030303030303030303030303030303030303035E
:2002400003030303030303030303030303030303030303030303030303030303030303033E
:2002600003030303030303030303030303030303030303030303030303030303030303031E
:200280000404040404040404040404040404040404040404040404040404040404040404DE
:2002A0000404040404040404040404040404040404040404040404040404040404040404BE
:2002C00004040404040404040404040404040404040404040404040404040404040404049E
:2002E00004040404040404040404040404040404040404040404040404040404040404047E
:2003000005050505050505050505050505050505050505050505050505050505050505053D
:2003200005050505050505050505050505050505050505050505050505050505050505051D
:200340000505050505050505050505050505050505050505050505050505050505050505FD
:200360000505050505050505050505050505050505050505050505050505050505050505DD
:2003800006060606060606060606060606060606060606060606060606060606060606069D
:2003A00006060606060606060606060606060606060606060606060606060606060606067D
:2003C00006060606060606060606060606060606060606060606060606060606060606065D
:2003E00006060606060606060606060606060606060606060606060606060606060606063D
:200400000707070707070707070707070707070707070707070707070707070707070707FC
:200420000707070707070707070707070707070707070707070707070707070707070707DC
:200440000707070707070707070707070707070707070707070707070707070707070707BC
:2004600007070707070707070707070707070707070707070707070707070707070707079C
:2004800008080808080808080808080808080808080808080808080808080808080808085C
:2004A00008080808080808080808080808080808080808080808080808080808080808083C
:2004C00008080808080808080808080808080808080808080808080808080808080808081C
:2004E0000808080808080808080808080808080808080808080808080808080808080808FC
:00000001FF
