:1801000021000039310010E5CDD602214C02CDCD02213702CDCD023A87
:180118000400E60F4F064180CD7E02CDD602CDD602212702CDCD022122
:18013000C701CDC60211C701CDE102444D79FE4CD27801111B00CDC277
:1801480001211702CDCD0221C701CDC60211C701CDE102444D79B7CA36
:180160007801FE1AD27801111E00CDC201112400CDC201CD7B0118AE18
:18017800E1F9C9CDD6022180000E087DD680CD03033E3ACD7E023E20A7
:18019000CD7E02E5CDA201E1CDB101CDD6020D20E2C906107ECD030371
:1801A8003E20CD7E022310F4C906107ECD8D0230023E2ECD7E02231096
:1801C000F2C92A010019E900000000000000000000000000000000003F
:1801D8000000000000000000000000000000000000000000000000000F
:1801F000000000000000000000000000000000000000000000000000F7
:18020800000000000000000000000000000000536563746F72202831F5
:180220002D3236293F2000547261636B202028302D3736293F200049B1
:180238006E746572726F676174696E6720447269766520005738424847
:18025000204449534B2044554D5020312E310D0A00C5D5E50E01CD05CE
:1802680000E1D1C1C9C5D5E50E061EFFCD0500B728F6E1D1C1C9F5C5F5
:18028000D5E50E025FCD0500E1D1C1F1C9FE20D8FE7E3FC90600CD6D84
:1802980002FE0D2826FE082017CB10CB1828EFCD7E023E20CD7E023EAB
:1802B00008CD7E022B0518DE7723CD7E020478FE4F38D3AF77C9CD94B0
:1802C80002CDD602C97EB7C8CD7E022318F73E0DCD7E023E0ACD7E0205
:1802E000C92100001AD630FE0AD013444D29290929856F30EF2430ECA9
:1802F800F57CCD03037DCD0303F1C9F5CD0C03F1CD1003C91F1F1F1FB9
:0B031000F6F027C6A0CE40CD7E02C94B
:00000001FF
